{"contracts/NFTMarketplace.sol":{"NFTMarketplace":{"abi":[{"inputs":[],"stateMutability":"nonpayable","type":"constructor"},{"inputs":[{"internalType":"address","name":"owner","type":"address"}],"name":"OwnableInvalidOwner","type":"error"},{"inputs":[{"internalType":"address","name":"account","type":"address"}],"name":"OwnableUnauthorizedAccount","type":"error"},{"anonymous":false,"inputs":[{"indexed":true,"internalType":"uint256","name":"itemId","type":"uint256"},{"indexed":true,"internalType":"address","name":"creator","type":"address"},{"indexed":false,"internalType":"string","name":"uri","type":"string"},{"indexed":false,"internalType":"uint256","name":"price","type":"uint256"}],"name":"ItemCreated","type":"event"},{"anonymous":false,"inputs":[{"indexed":true,"internalType":"uint256","name":"itemId","type":"uint256"},{"indexed":true,"internalType":"address","name":"buyer","type":"address"},{"indexed":false,"internalType":"uint256","name":"price","type":"uint256"}],"name":"ItemSold","type":"event"},{"anonymous":false,"inputs":[{"indexed":true,"internalType":"address","name":"previousOwner","type":"address"},{"indexed":true,"internalType":"address","name":"newOwner","type":"address"}],"name":"OwnershipTransferred","type":"event"},{"inputs":[{"internalType":"uint256","name":"itemId","type":"uint256"}],"name":"buyItem","outputs":[],"stateMutability":"payable","type":"function"},{"inputs":[{"internalType":"string","name":"uri","type":"string"},{"internalType":"uint256","name":"price","type":"uint256"}],"name":"createItem","outputs":[],"stateMutability":"nonpayable","type":"function"},{"inputs":[{"internalType":"uint256","name":"itemId","type":"uint256"}],"name":"getItem","outputs":[{"internalType":"uint256","name":"id","type":"uint256"},{"internalType":"address","name":"creator","type":"address"},{"internalType":"string","name":"uri","type":"string"},{"internalType":"uint256","name":"price","type":"uint256"},{"internalType":"bool","name":"sold","type":"bool"}],"stateMutability":"view","type":"function"},{"inputs":[],"name":"getItemsSold","outputs":[{"internalType":"uint256","name":"","type":"uint256"}],"stateMutability":"view","type":"function"},{"inputs":[],"name":"owner","outputs":[{"internalType":"address","name":"","type":"address"}],"stateMutability":"view","type":"function"},{"inputs":[],"name":"renounceOwnership","outputs":[],"stateMutability":"nonpayable","type":"function"},{"inputs":[{"internalType":"address","name":"newOwner","type":"address"}],"name":"transferOwnership","outputs":[],"stateMutability":"nonpayable","type":"function"}],"evm":{"bytecode":{"linkReferences":{},"object":"608060405234801561001057600080fd5b5033600073ffffffffffffffffffffffffffffffffffffffff168173ffffffffffffffffffffffffffffffffffffffff16036100845760006040517f1e4fbdf700000000000000000000000000000000000000000000000000000000815260040161007b919061019e565b60405180910390fd5b6100938161009960201b60201c565b506101b9565b60008060009054906101000a900473ffffffffffffffffffffffffffffffffffffffff169050816000806101000a81548173ffffffffffffffffffffffffffffffffffffffff021916908373ffffffffffffffffffffffffffffffffffffffff1602179055508173ffffffffffffffffffffffffffffffffffffffff168173ffffffffffffffffffffffffffffffffffffffff167f8be0079c531659141344cd1fd0a4f28419497f9722a3daafe3b4186f6b6457e060405160405180910390a35050565b600073ffffffffffffffffffffffffffffffffffffffff82169050919050565b60006101888261015d565b9050919050565b6101988161017d565b82525050565b60006020820190506101b3600083018461018f565b92915050565b611046806101c86000396000f3fe6080604052600436106100705760003560e01c80638da5cb5b1161004e5780638da5cb5b146100f6578063c4b1514114610121578063e7fb74c71461014c578063f2fde38b1461016857610070565b80633129e77314610075578063715018a6146100b65780638c551742146100cd575b600080fd5b34801561008157600080fd5b5061009c60048036038101906100979190610811565b610191565b6040516100ad959493929190610939565b60405180910390f35b3480156100c257600080fd5b506100cb610292565b005b3480156100d957600080fd5b506100f460048036038101906100ef9190610ac8565b6102a6565b005b34801561010257600080fd5b5061010b61040a565b6040516101189190610b24565b60405180910390f35b34801561012d57600080fd5b50610136610433565b6040516101439190610b3f565b60405180910390f35b61016660048036038101906101619190610811565b61043d565b005b34801561017457600080fd5b5061018f600480360381019061018a9190610b86565b6105ee565b005b60008060606000806000600160008881526020019081526020016000209050806000015495508060010160009054906101000a900473ffffffffffffffffffffffffffffffffffffffff1694508060020180546101ed90610be2565b80601f016020809104026020016040519081016040528092919081815260200182805461021990610be2565b80156102665780601f1061023b57610100808354040283529160200191610266565b820191906000526020600020905b81548152906001019060200180831161024957829003601f168201915b50505050509350806003015492508060040160009054906101000a900460ff1691505091939590929450565b61029a610674565b6102a460006106fb565b565b6102ae610674565b600260008154809291906102c190610c42565b9190505550600060025490506040518060a001604052808281526020013373ffffffffffffffffffffffffffffffffffffffff16815260200184815260200183815260200160001515815250600160008381526020019081526020016000206000820151816000015560208201518160010160006101000a81548173ffffffffffffffffffffffffffffffffffffffff021916908373ffffffffffffffffffffffffffffffffffffffff16021790555060408201518160020190816103869190610e36565b506060820151816003015560808201518160040160006101000a81548160ff0219169083151502179055509050503373ffffffffffffffffffffffffffffffffffffffff16817f1603f20f721362b0691bb408edb3cf01409cd56da9edd4627b178750b7dd49a885856040516103fd929190610f08565b60405180910390a3505050565b60008060009054906101000a900473ffffffffffffffffffffffffffffffffffffffff16905090565b6000600354905090565b6000600160008381526020019081526020016000209050600015158160040160009054906101000a900460ff161515146104ac576040517f08c379a00000000000000000000000000000000000000000000000000000000081526004016104a390610f84565b60405180910390fd5b80600301543410156104f3576040517f08c379a00000000000000000000000000000000000000000000000000000000081526004016104ea90610ff0565b60405180910390fd5b60018160040160006101000a81548160ff0219169083151502179055506003600081548092919061052390610c42565b91905055503373ffffffffffffffffffffffffffffffffffffffff16827fa574c741071bb18f51fa88c17aeefec514bebf670ca22a3736fba6504ecbb76383600301546040516105739190610b3f565b60405180910390a38060010160009054906101000a900473ffffffffffffffffffffffffffffffffffffffff1673ffffffffffffffffffffffffffffffffffffffff166108fc82600301549081150290604051600060405180830381858888f193505050501580156105e9573d6000803e3d6000fd5b505050565b6105f6610674565b600073ffffffffffffffffffffffffffffffffffffffff168173ffffffffffffffffffffffffffffffffffffffff16036106685760006040517f1e4fbdf700000000000000000000000000000000000000000000000000000000815260040161065f9190610b24565b60405180910390fd5b610671816106fb565b50565b61067c6107bf565b73ffffffffffffffffffffffffffffffffffffffff1661069a61040a565b73ffffffffffffffffffffffffffffffffffffffff16146106f9576106bd6107bf565b6040517f118cdaa70000000000000000000000000000000000000000000000000000000081526004016106f09190610b24565b60405180910390fd5b565b60008060009054906101000a900473ffffffffffffffffffffffffffffffffffffffff169050816000806101000a81548173ffffffffffffffffffffffffffffffffffffffff021916908373ffffffffffffffffffffffffffffffffffffffff1602179055508173ffffffffffffffffffffffffffffffffffffffff168173ffffffffffffffffffffffffffffffffffffffff167f8be0079c531659141344cd1fd0a4f28419497f9722a3daafe3b4186f6b6457e060405160405180910390a35050565b600033905090565b6000604051905090565b600080fd5b600080fd5b6000819050919050565b6107ee816107db565b81146107f957600080fd5b50565b60008135905061080b816107e5565b92915050565b600060208284031215610827576108266107d1565b5b6000610835848285016107fc565b91505092915050565b610847816107db565b82525050565b600073ffffffffffffffffffffffffffffffffffffffff82169050919050565b60006108788261084d565b9050919050565b6108888161086d565b82525050565b600081519050919050565b600082825260208201905092915050565b60005b838110156108c85780820151818401526020810190506108ad565b60008484015250505050565b6000601f19601f8301169050919050565b60006108f08261088e565b6108fa8185610899565b935061090a8185602086016108aa565b610913816108d4565b840191505092915050565b60008115159050919050565b6109338161091e565b82525050565b600060a08201905061094e600083018861083e565b61095b602083018761087f565b818103604083015261096d81866108e5565b905061097c606083018561083e565b610989608083018461092a565b9695505050505050565b600080fd5b600080fd5b7f4e487b7100000000000000000000000000000000000000000000000000000000600052604160045260246000fd5b6109d5826108d4565b810181811067ffffffffffffffff821117156109f4576109f361099d565b5b80604052505050565b6000610a076107c7565b9050610a1382826109cc565b919050565b600067ffffffffffffffff821115610a3357610a3261099d565b5b610a3c826108d4565b9050602081019050919050565b82818337600083830152505050565b6000610a6b610a6684610a18565b6109fd565b905082815260208101848484011115610a8757610a86610998565b5b610a92848285610a49565b509392505050565b600082601f830112610aaf57610aae610993565b5b8135610abf848260208601610a58565b91505092915050565b60008060408385031215610adf57610ade6107d1565b5b600083013567ffffffffffffffff811115610afd57610afc6107d6565b5b610b0985828601610a9a565b9250506020610b1a858286016107fc565b9150509250929050565b6000602082019050610b39600083018461087f565b92915050565b6000602082019050610b54600083018461083e565b92915050565b610b638161086d565b8114610b6e57600080fd5b50565b600081359050610b8081610b5a565b92915050565b600060208284031215610b9c57610b9b6107d1565b5b6000610baa84828501610b71565b91505092915050565b7f4e487b7100000000000000000000000000000000000000000000000000000000600052602260045260246000fd5b60006002820490506001821680610bfa57607f821691505b602082108103610c0d57610c0c610bb3565b5b50919050565b7f4e487b7100000000000000000000000000000000000000000000000000000000600052601160045260246000fd5b6000610c4d826107db565b91507fffffffffffffffffffffffffffffffffffffffffffffffffffffffffffffffff8203610c7f57610c7e610c13565b5b600182019050919050565b60008190508160005260206000209050919050565b60006020601f8301049050919050565b600082821b905092915050565b600060088302610cec7fffffffffffffffffffffffffffffffffffffffffffffffffffffffffffffffff82610caf565b610cf68683610caf565b95508019841693508086168417925050509392505050565b6000819050919050565b6000610d33610d2e610d29846107db565b610d0e565b6107db565b9050919050565b6000819050919050565b610d4d83610d18565b610d61610d5982610d3a565b848454610cbc565b825550505050565b600090565b610d76610d69565b610d81818484610d44565b505050565b5b81811015610da557610d9a600082610d6e565b600181019050610d87565b5050565b601f821115610dea57610dbb81610c8a565b610dc484610c9f565b81016020851015610dd3578190505b610de7610ddf85610c9f565b830182610d86565b50505b505050565b600082821c905092915050565b6000610e0d60001984600802610def565b1980831691505092915050565b6000610e268383610dfc565b9150826002028217905092915050565b610e3f8261088e565b67ffffffffffffffff811115610e5857610e5761099d565b5b610e628254610be2565b610e6d828285610da9565b600060209050601f831160018114610ea05760008415610e8e578287015190505b610e988582610e1a565b865550610f00565b601f198416610eae86610c8a565b60005b82811015610ed657848901518255600182019150602085019450602081019050610eb1565b86831015610ef35784890151610eef601f891682610dfc565b8355505b6001600288020188555050505b505050505050565b60006040820190508181036000830152610f2281856108e5565b9050610f31602083018461083e565b9392505050565b7f4974656d20616c726561647920736f6c64000000000000000000000000000000600082015250565b6000610f6e601183610899565b9150610f7982610f38565b602082019050919050565b60006020820190508181036000830152610f9d81610f61565b9050919050565b7f496e73756666696369656e742066756e64730000000000000000000000000000600082015250565b6000610fda601283610899565b9150610fe582610fa4565b602082019050919050565b6000602082019050818103600083015261100981610fcd565b905091905056fea26469706673582212206e784dd863f46869aa43d37ccfbb867c35840b023dddb712055bebdd90ef8dcf64736f6c63430008180033","opcodes":"PUSH1 0x80 PUSH1 0x40 MSTORE CALLVALUE DUP1 ISZERO PUSH2 0x10 JUMPI PUSH1 0x0 DUP1 REVERT JUMPDEST POP CALLER PUSH1 0x0 PUSH20 0xFFFFFFFFFFFFFFFFFFFFFFFFFFFFFFFFFFFFFFFF AND DUP2 PUSH20 0xFFFFFFFFFFFFFFFFFFFFFFFFFFFFFFFFFFFFFFFF AND SUB PUSH2 0x84 JUMPI PUSH1 0x0 PUSH1 0x40 MLOAD PUSH32 0x1E4FBDF700000000000000000000000000000000000000000000000000000000 DUP2 MSTORE PUSH1 0x4 ADD PUSH2 0x7B SWAP2 SWAP1 PUSH2 0x19E JUMP JUMPDEST PUSH1 0x40 MLOAD DUP1 SWAP2 SUB SWAP1 REVERT JUMPDEST PUSH2 0x93 DUP2 PUSH2 0x99 PUSH1 0x20 SHL PUSH1 0x20 SHR JUMP JUMPDEST POP PUSH2 0x1B9 JUMP JUMPDEST PUSH1 0x0 DUP1 PUSH1 0x0 SWAP1 SLOAD SWAP1 PUSH2 0x100 EXP SWAP1 DIV PUSH20 0xFFFFFFFFFFFFFFFFFFFFFFFFFFFFFFFFFFFFFFFF AND SWAP1 POP DUP2 PUSH1 0x0 DUP1 PUSH2 0x100 EXP DUP2 SLOAD DUP2 PUSH20 0xFFFFFFFFFFFFFFFFFFFFFFFFFFFFFFFFFFFFFFFF MUL NOT AND SWAP1 DUP4 PUSH20 0xFFFFFFFFFFFFFFFFFFFFFFFFFFFFFFFFFFFFFFFF AND MUL OR SWAP1 SSTORE POP DUP2 PUSH20 0xFFFFFFFFFFFFFFFFFFFFFFFFFFFFFFFFFFFFFFFF AND DUP2 PUSH20 0xFFFFFFFFFFFFFFFFFFFFFFFFFFFFFFFFFFFFFFFF AND PUSH32 0x8BE0079C531659141344CD1FD0A4F28419497F9722A3DAAFE3B4186F6B6457E0 PUSH1 0x40 MLOAD PUSH1 0x40 MLOAD DUP1 SWAP2 SUB SWAP1 LOG3 POP POP JUMP JUMPDEST PUSH1 0x0 PUSH20 0xFFFFFFFFFFFFFFFFFFFFFFFFFFFFFFFFFFFFFFFF DUP3 AND SWAP1 POP SWAP2 SWAP1 POP JUMP JUMPDEST PUSH1 0x0 PUSH2 0x188 DUP3 PUSH2 0x15D JUMP JUMPDEST SWAP1 POP SWAP2 SWAP1 POP JUMP JUMPDEST PUSH2 0x198 DUP2 PUSH2 0x17D JUMP JUMPDEST DUP3 MSTORE POP POP JUMP JUMPDEST PUSH1 0x0 PUSH1 0x20 DUP3 ADD SWAP1 POP PUSH2 0x1B3 PUSH1 0x0 DUP4 ADD DUP5 PUSH2 0x18F JUMP JUMPDEST SWAP3 SWAP2 POP POP JUMP JUMPDEST PUSH2 0x1046 DUP1 PUSH2 0x1C8 PUSH1 0x0 CODECOPY PUSH1 0x0 RETURN INVALID PUSH1 0x80 PUSH1 0x40 MSTORE PUSH1 0x4 CALLDATASIZE LT PUSH2 0x70 JUMPI PUSH1 0x0 CALLDATALOAD PUSH1 0xE0 SHR DUP1 PUSH4 0x8DA5CB5B GT PUSH2 0x4E JUMPI DUP1 PUSH4 0x8DA5CB5B EQ PUSH2 0xF6 JUMPI DUP1 PUSH4 0xC4B15141 EQ PUSH2 0x121 JUMPI DUP1 PUSH4 0xE7FB74C7 EQ PUSH2 0x14C JUMPI DUP1 PUSH4 0xF2FDE38B EQ PUSH2 0x168 JUMPI PUSH2 0x70 JUMP JUMPDEST DUP1 PUSH4 0x3129E773 EQ PUSH2 0x75 JUMPI DUP1 PUSH4 0x715018A6 EQ PUSH2 0xB6 JUMPI DUP1 PUSH4 0x8C551742 EQ PUSH2 0xCD JUMPI JUMPDEST PUSH1 0x0 DUP1 REVERT JUMPDEST CALLVALUE DUP1 ISZERO PUSH2 0x81 JUMPI PUSH1 0x0 DUP1 REVERT JUMPDEST POP PUSH2 0x9C PUSH1 0x4 DUP1 CALLDATASIZE SUB DUP2 ADD SWAP1 PUSH2 0x97 SWAP2 SWAP1 PUSH2 0x811 JUMP JUMPDEST PUSH2 0x191 JUMP JUMPDEST PUSH1 0x40 MLOAD PUSH2 0xAD SWAP6 SWAP5 SWAP4 SWAP3 SWAP2 SWAP1 PUSH2 0x939 JUMP JUMPDEST PUSH1 0x40 MLOAD DUP1 SWAP2 SUB SWAP1 RETURN JUMPDEST CALLVALUE DUP1 ISZERO PUSH2 0xC2 JUMPI PUSH1 0x0 DUP1 REVERT JUMPDEST POP PUSH2 0xCB PUSH2 0x292 JUMP JUMPDEST STOP JUMPDEST CALLVALUE DUP1 ISZERO PUSH2 0xD9 JUMPI PUSH1 0x0 DUP1 REVERT JUMPDEST POP PUSH2 0xF4 PUSH1 0x4 DUP1 CALLDATASIZE SUB DUP2 ADD SWAP1 PUSH2 0xEF SWAP2 SWAP1 PUSH2 0xAC8 JUMP JUMPDEST PUSH2 0x2A6 JUMP JUMPDEST STOP JUMPDEST CALLVALUE DUP1 ISZERO PUSH2 0x102 JUMPI PUSH1 0x0 DUP1 REVERT JUMPDEST POP PUSH2 0x10B PUSH2 0x40A JUMP JUMPDEST PUSH1 0x40 MLOAD PUSH2 0x118 SWAP2 SWAP1 PUSH2 0xB24 JUMP JUMPDEST PUSH1 0x40 MLOAD DUP1 SWAP2 SUB SWAP1 RETURN JUMPDEST CALLVALUE DUP1 ISZERO PUSH2 0x12D JUMPI PUSH1 0x0 DUP1 REVERT JUMPDEST POP PUSH2 0x136 PUSH2 0x433 JUMP JUMPDEST PUSH1 0x40 MLOAD PUSH2 0x143 SWAP2 SWAP1 PUSH2 0xB3F JUMP JUMPDEST PUSH1 0x40 MLOAD DUP1 SWAP2 SUB SWAP1 RETURN JUMPDEST PUSH2 0x166 PUSH1 0x4 DUP1 CALLDATASIZE SUB DUP2 ADD SWAP1 PUSH2 0x161 SWAP2 SWAP1 PUSH2 0x811 JUMP JUMPDEST PUSH2 0x43D JUMP JUMPDEST STOP JUMPDEST CALLVALUE DUP1 ISZERO PUSH2 0x174 JUMPI PUSH1 0x0 DUP1 REVERT JUMPDEST POP PUSH2 0x18F PUSH1 0x4 DUP1 CALLDATASIZE SUB DUP2 ADD SWAP1 PUSH2 0x18A SWAP2 SWAP1 PUSH2 0xB86 JUMP JUMPDEST PUSH2 0x5EE JUMP JUMPDEST STOP JUMPDEST PUSH1 0x0 DUP1 PUSH1 0x60 PUSH1 0x0 DUP1 PUSH1 0x0 PUSH1 0x1 PUSH1 0x0 DUP9 DUP2 MSTORE PUSH1 0x20 ADD SWAP1 DUP2 MSTORE PUSH1 0x20 ADD PUSH1 0x0 KECCAK256 SWAP1 POP DUP1 PUSH1 0x0 ADD SLOAD SWAP6 POP DUP1 PUSH1 0x1 ADD PUSH1 0x0 SWAP1 SLOAD SWAP1 PUSH2 0x100 EXP SWAP1 DIV PUSH20 0xFFFFFFFFFFFFFFFFFFFFFFFFFFFFFFFFFFFFFFFF AND SWAP5 POP DUP1 PUSH1 0x2 ADD DUP1 SLOAD PUSH2 0x1ED SWAP1 PUSH2 0xBE2 JUMP JUMPDEST DUP1 PUSH1 0x1F ADD PUSH1 0x20 DUP1 SWAP2 DIV MUL PUSH1 0x20 ADD PUSH1 0x40 MLOAD SWAP1 DUP2 ADD PUSH1 0x40 MSTORE DUP1 SWAP3 SWAP2 SWAP1 DUP2 DUP2 MSTORE PUSH1 0x20 ADD DUP3 DUP1 SLOAD PUSH2 0x219 SWAP1 PUSH2 0xBE2 JUMP JUMPDEST DUP1 ISZERO PUSH2 0x266 JUMPI DUP1 PUSH1 0x1F LT PUSH2 0x23B JUMPI PUSH2 0x100 DUP1 DUP4 SLOAD DIV MUL DUP4 MSTORE SWAP2 PUSH1 0x20 ADD SWAP2 PUSH2 0x266 JUMP JUMPDEST DUP3 ADD SWAP2 SWAP1 PUSH1 0x0 MSTORE PUSH1 0x20 PUSH1 0x0 KECCAK256 SWAP1 JUMPDEST DUP2 SLOAD DUP2 MSTORE SWAP1 PUSH1 0x1 ADD SWAP1 PUSH1 0x20 ADD DUP1 DUP4 GT PUSH2 0x249 JUMPI DUP3 SWAP1 SUB PUSH1 0x1F AND DUP3 ADD SWAP2 JUMPDEST POP POP POP POP POP SWAP4 POP DUP1 PUSH1 0x3 ADD SLOAD SWAP3 POP DUP1 PUSH1 0x4 ADD PUSH1 0x0 SWAP1 SLOAD SWAP1 PUSH2 0x100 EXP SWAP1 DIV PUSH1 0xFF AND SWAP2 POP POP SWAP2 SWAP4 SWAP6 SWAP1 SWAP3 SWAP5 POP JUMP JUMPDEST PUSH2 0x29A PUSH2 0x674 JUMP JUMPDEST PUSH2 0x2A4 PUSH1 0x0 PUSH2 0x6FB JUMP JUMPDEST JUMP JUMPDEST PUSH2 0x2AE PUSH2 0x674 JUMP JUMPDEST PUSH1 0x2 PUSH1 0x0 DUP2 SLOAD DUP1 SWAP3 SWAP2 SWAP1 PUSH2 0x2C1 SWAP1 PUSH2 0xC42 JUMP JUMPDEST SWAP2 SWAP1 POP SSTORE POP PUSH1 0x0 PUSH1 0x2 SLOAD SWAP1 POP PUSH1 0x40 MLOAD DUP1 PUSH1 0xA0 ADD PUSH1 0x40 MSTORE DUP1 DUP3 DUP2 MSTORE PUSH1 0x20 ADD CALLER PUSH20 0xFFFFFFFFFFFFFFFFFFFFFFFFFFFFFFFFFFFFFFFF AND DUP2 MSTORE PUSH1 0x20 ADD DUP5 DUP2 MSTORE PUSH1 0x20 ADD DUP4 DUP2 MSTORE PUSH1 0x20 ADD PUSH1 0x0 ISZERO ISZERO DUP2 MSTORE POP PUSH1 0x1 PUSH1 0x0 DUP4 DUP2 MSTORE PUSH1 0x20 ADD SWAP1 DUP2 MSTORE PUSH1 0x20 ADD PUSH1 0x0 KECCAK256 PUSH1 0x0 DUP3 ADD MLOAD DUP2 PUSH1 0x0 ADD SSTORE PUSH1 0x20 DUP3 ADD MLOAD DUP2 PUSH1 0x1 ADD PUSH1 0x0 PUSH2 0x100 EXP DUP2 SLOAD DUP2 PUSH20 0xFFFFFFFFFFFFFFFFFFFFFFFFFFFFFFFFFFFFFFFF MUL NOT AND SWAP1 DUP4 PUSH20 0xFFFFFFFFFFFFFFFFFFFFFFFFFFFFFFFFFFFFFFFF AND MUL OR SWAP1 SSTORE POP PUSH1 0x40 DUP3 ADD MLOAD DUP2 PUSH1 0x2 ADD SWAP1 DUP2 PUSH2 0x386 SWAP2 SWAP1 PUSH2 0xE36 JUMP JUMPDEST POP PUSH1 0x60 DUP3 ADD MLOAD DUP2 PUSH1 0x3 ADD SSTORE PUSH1 0x80 DUP3 ADD MLOAD DUP2 PUSH1 0x4 ADD PUSH1 0x0 PUSH2 0x100 EXP DUP2 SLOAD DUP2 PUSH1 0xFF MUL NOT AND SWAP1 DUP4 ISZERO ISZERO MUL OR SWAP1 SSTORE POP SWAP1 POP POP CALLER PUSH20 0xFFFFFFFFFFFFFFFFFFFFFFFFFFFFFFFFFFFFFFFF AND DUP2 PUSH32 0x1603F20F721362B0691BB408EDB3CF01409CD56DA9EDD4627B178750B7DD49A8 DUP6 DUP6 PUSH1 0x40 MLOAD PUSH2 0x3FD SWAP3 SWAP2 SWAP1 PUSH2 0xF08 JUMP JUMPDEST PUSH1 0x40 MLOAD DUP1 SWAP2 SUB SWAP1 LOG3 POP POP POP JUMP JUMPDEST PUSH1 0x0 DUP1 PUSH1 0x0 SWAP1 SLOAD SWAP1 PUSH2 0x100 EXP SWAP1 DIV PUSH20 0xFFFFFFFFFFFFFFFFFFFFFFFFFFFFFFFFFFFFFFFF AND SWAP1 POP SWAP1 JUMP JUMPDEST PUSH1 0x0 PUSH1 0x3 SLOAD SWAP1 POP SWAP1 JUMP JUMPDEST PUSH1 0x0 PUSH1 0x1 PUSH1 0x0 DUP4 DUP2 MSTORE PUSH1 0x20 ADD SWAP1 DUP2 MSTORE PUSH1 0x20 ADD PUSH1 0x0 KECCAK256 SWAP1 POP PUSH1 0x0 ISZERO ISZERO DUP2 PUSH1 0x4 ADD PUSH1 0x0 SWAP1 SLOAD SWAP1 PUSH2 0x100 EXP SWAP1 DIV PUSH1 0xFF AND ISZERO ISZERO EQ PUSH2 0x4AC JUMPI PUSH1 0x40 MLOAD PUSH32 0x8C379A000000000000000000000000000000000000000000000000000000000 DUP2 MSTORE PUSH1 0x4 ADD PUSH2 0x4A3 SWAP1 PUSH2 0xF84 JUMP JUMPDEST PUSH1 0x40 MLOAD DUP1 SWAP2 SUB SWAP1 REVERT JUMPDEST DUP1 PUSH1 0x3 ADD SLOAD CALLVALUE LT ISZERO PUSH2 0x4F3 JUMPI PUSH1 0x40 MLOAD PUSH32 0x8C379A000000000000000000000000000000000000000000000000000000000 DUP2 MSTORE PUSH1 0x4 ADD PUSH2 0x4EA SWAP1 PUSH2 0xFF0 JUMP JUMPDEST PUSH1 0x40 MLOAD DUP1 SWAP2 SUB SWAP1 REVERT JUMPDEST PUSH1 0x1 DUP2 PUSH1 0x4 ADD PUSH1 0x0 PUSH2 0x100 EXP DUP2 SLOAD DUP2 PUSH1 0xFF MUL NOT AND SWAP1 DUP4 ISZERO ISZERO MUL OR SWAP1 SSTORE POP PUSH1 0x3 PUSH1 0x0 DUP2 SLOAD DUP1 SWAP3 SWAP2 SWAP1 PUSH2 0x523 SWAP1 PUSH2 0xC42 JUMP JUMPDEST SWAP2 SWAP1 POP SSTORE POP CALLER PUSH20 0xFFFFFFFFFFFFFFFFFFFFFFFFFFFFFFFFFFFFFFFF AND DUP3 PUSH32 0xA574C741071BB18F51FA88C17AEEFEC514BEBF670CA22A3736FBA6504ECBB763 DUP4 PUSH1 0x3 ADD SLOAD PUSH1 0x40 MLOAD PUSH2 0x573 SWAP2 SWAP1 PUSH2 0xB3F JUMP JUMPDEST PUSH1 0x40 MLOAD DUP1 SWAP2 SUB SWAP1 LOG3 DUP1 PUSH1 0x1 ADD PUSH1 0x0 SWAP1 SLOAD SWAP1 PUSH2 0x100 EXP SWAP1 DIV PUSH20 0xFFFFFFFFFFFFFFFFFFFFFFFFFFFFFFFFFFFFFFFF AND PUSH20 0xFFFFFFFFFFFFFFFFFFFFFFFFFFFFFFFFFFFFFFFF AND PUSH2 0x8FC DUP3 PUSH1 0x3 ADD SLOAD SWAP1 DUP2 ISZERO MUL SWAP1 PUSH1 0x40 MLOAD PUSH1 0x0 PUSH1 0x40 MLOAD DUP1 DUP4 SUB DUP2 DUP6 DUP9 DUP9 CALL SWAP4 POP POP POP POP ISZERO DUP1 ISZERO PUSH2 0x5E9 JUMPI RETURNDATASIZE PUSH1 0x0 DUP1 RETURNDATACOPY RETURNDATASIZE PUSH1 0x0 REVERT JUMPDEST POP POP POP JUMP JUMPDEST PUSH2 0x5F6 PUSH2 0x674 JUMP JUMPDEST PUSH1 0x0 PUSH20 0xFFFFFFFFFFFFFFFFFFFFFFFFFFFFFFFFFFFFFFFF AND DUP2 PUSH20 0xFFFFFFFFFFFFFFFFFFFFFFFFFFFFFFFFFFFFFFFF AND SUB PUSH2 0x668 JUMPI PUSH1 0x0 PUSH1 0x40 MLOAD PUSH32 0x1E4FBDF700000000000000000000000000000000000000000000000000000000 DUP2 MSTORE PUSH1 0x4 ADD PUSH2 0x65F SWAP2 SWAP1 PUSH2 0xB24 JUMP JUMPDEST PUSH1 0x40 MLOAD DUP1 SWAP2 SUB SWAP1 REVERT JUMPDEST PUSH2 0x671 DUP2 PUSH2 0x6FB JUMP JUMPDEST POP JUMP JUMPDEST PUSH2 0x67C PUSH2 0x7BF JUMP JUMPDEST PUSH20 0xFFFFFFFFFFFFFFFFFFFFFFFFFFFFFFFFFFFFFFFF AND PUSH2 0x69A PUSH2 0x40A JUMP JUMPDEST PUSH20 0xFFFFFFFFFFFFFFFFFFFFFFFFFFFFFFFFFFFFFFFF AND EQ PUSH2 0x6F9 JUMPI PUSH2 0x6BD PUSH2 0x7BF JUMP JUMPDEST PUSH1 0x40 MLOAD PUSH32 0x118CDAA700000000000000000000000000000000000000000000000000000000 DUP2 MSTORE PUSH1 0x4 ADD PUSH2 0x6F0 SWAP2 SWAP1 PUSH2 0xB24 JUMP JUMPDEST PUSH1 0x40 MLOAD DUP1 SWAP2 SUB SWAP1 REVERT JUMPDEST JUMP JUMPDEST PUSH1 0x0 DUP1 PUSH1 0x0 SWAP1 SLOAD SWAP1 PUSH2 0x100 EXP SWAP1 DIV PUSH20 0xFFFFFFFFFFFFFFFFFFFFFFFFFFFFFFFFFFFFFFFF AND SWAP1 POP DUP2 PUSH1 0x0 DUP1 PUSH2 0x100 EXP DUP2 SLOAD DUP2 PUSH20 0xFFFFFFFFFFFFFFFFFFFFFFFFFFFFFFFFFFFFFFFF MUL NOT AND SWAP1 DUP4 PUSH20 0xFFFFFFFFFFFFFFFFFFFFFFFFFFFFFFFFFFFFFFFF AND MUL OR SWAP1 SSTORE POP DUP2 PUSH20 0xFFFFFFFFFFFFFFFFFFFFFFFFFFFFFFFFFFFFFFFF AND DUP2 PUSH20 0xFFFFFFFFFFFFFFFFFFFFFFFFFFFFFFFFFFFFFFFF AND PUSH32 0x8BE0079C531659141344CD1FD0A4F28419497F9722A3DAAFE3B4186F6B6457E0 PUSH1 0x40 MLOAD PUSH1 0x40 MLOAD DUP1 SWAP2 SUB SWAP1 LOG3 POP POP JUMP JUMPDEST PUSH1 0x0 CALLER SWAP1 POP SWAP1 JUMP JUMPDEST PUSH1 0x0 PUSH1 0x40 MLOAD SWAP1 POP SWAP1 JUMP JUMPDEST PUSH1 0x0 DUP1 REVERT JUMPDEST PUSH1 0x0 DUP1 REVERT JUMPDEST PUSH1 0x0 DUP2 SWAP1 POP SWAP2 SWAP1 POP JUMP JUMPDEST PUSH2 0x7EE DUP2 PUSH2 0x7DB JUMP JUMPDEST DUP2 EQ PUSH2 0x7F9 JUMPI PUSH1 0x0 DUP1 REVERT JUMPDEST POP JUMP JUMPDEST PUSH1 0x0 DUP2 CALLDATALOAD SWAP1 POP PUSH2 0x80B DUP2 PUSH2 0x7E5 JUMP JUMPDEST SWAP3 SWAP2 POP POP JUMP JUMPDEST PUSH1 0x0 PUSH1 0x20 DUP3 DUP5 SUB SLT ISZERO PUSH2 0x827 JUMPI PUSH2 0x826 PUSH2 0x7D1 JUMP JUMPDEST JUMPDEST PUSH1 0x0 PUSH2 0x835 DUP5 DUP3 DUP6 ADD PUSH2 0x7FC JUMP JUMPDEST SWAP2 POP POP SWAP3 SWAP2 POP POP JUMP JUMPDEST PUSH2 0x847 DUP2 PUSH2 0x7DB JUMP JUMPDEST DUP3 MSTORE POP POP JUMP JUMPDEST PUSH1 0x0 PUSH20 0xFFFFFFFFFFFFFFFFFFFFFFFFFFFFFFFFFFFFFFFF DUP3 AND SWAP1 POP SWAP2 SWAP1 POP JUMP JUMPDEST PUSH1 0x0 PUSH2 0x878 DUP3 PUSH2 0x84D JUMP JUMPDEST SWAP1 POP SWAP2 SWAP1 POP JUMP JUMPDEST PUSH2 0x888 DUP2 PUSH2 0x86D JUMP JUMPDEST DUP3 MSTORE POP POP JUMP JUMPDEST PUSH1 0x0 DUP2 MLOAD SWAP1 POP SWAP2 SWAP1 POP JUMP JUMPDEST PUSH1 0x0 DUP3 DUP3 MSTORE PUSH1 0x20 DUP3 ADD SWAP1 POP SWAP3 SWAP2 POP POP JUMP JUMPDEST PUSH1 0x0 JUMPDEST DUP4 DUP2 LT ISZERO PUSH2 0x8C8 JUMPI DUP1 DUP3 ADD MLOAD DUP2 DUP5 ADD MSTORE PUSH1 0x20 DUP2 ADD SWAP1 POP PUSH2 0x8AD JUMP JUMPDEST PUSH1 0x0 DUP5 DUP5 ADD MSTORE POP POP POP POP JUMP JUMPDEST PUSH1 0x0 PUSH1 0x1F NOT PUSH1 0x1F DUP4 ADD AND SWAP1 POP SWAP2 SWAP1 POP JUMP JUMPDEST PUSH1 0x0 PUSH2 0x8F0 DUP3 PUSH2 0x88E JUMP JUMPDEST PUSH2 0x8FA DUP2 DUP6 PUSH2 0x899 JUMP JUMPDEST SWAP4 POP PUSH2 0x90A DUP2 DUP6 PUSH1 0x20 DUP7 ADD PUSH2 0x8AA JUMP JUMPDEST PUSH2 0x913 DUP2 PUSH2 0x8D4 JUMP JUMPDEST DUP5 ADD SWAP2 POP POP SWAP3 SWAP2 POP POP JUMP JUMPDEST PUSH1 0x0 DUP2 ISZERO ISZERO SWAP1 POP SWAP2 SWAP1 POP JUMP JUMPDEST PUSH2 0x933 DUP2 PUSH2 0x91E JUMP JUMPDEST DUP3 MSTORE POP POP JUMP JUMPDEST PUSH1 0x0 PUSH1 0xA0 DUP3 ADD SWAP1 POP PUSH2 0x94E PUSH1 0x0 DUP4 ADD DUP9 PUSH2 0x83E JUMP JUMPDEST PUSH2 0x95B PUSH1 0x20 DUP4 ADD DUP8 PUSH2 0x87F JUMP JUMPDEST DUP2 DUP2 SUB PUSH1 0x40 DUP4 ADD MSTORE PUSH2 0x96D DUP2 DUP7 PUSH2 0x8E5 JUMP JUMPDEST SWAP1 POP PUSH2 0x97C PUSH1 0x60 DUP4 ADD DUP6 PUSH2 0x83E JUMP JUMPDEST PUSH2 0x989 PUSH1 0x80 DUP4 ADD DUP5 PUSH2 0x92A JUMP JUMPDEST SWAP7 SWAP6 POP POP POP POP POP POP JUMP JUMPDEST PUSH1 0x0 DUP1 REVERT JUMPDEST PUSH1 0x0 DUP1 REVERT JUMPDEST PUSH32 0x4E487B7100000000000000000000000000000000000000000000000000000000 PUSH1 0x0 MSTORE PUSH1 0x41 PUSH1 0x4 MSTORE PUSH1 0x24 PUSH1 0x0 REVERT JUMPDEST PUSH2 0x9D5 DUP3 PUSH2 0x8D4 JUMP JUMPDEST DUP2 ADD DUP2 DUP2 LT PUSH8 0xFFFFFFFFFFFFFFFF DUP3 GT OR ISZERO PUSH2 0x9F4 JUMPI PUSH2 0x9F3 PUSH2 0x99D JUMP JUMPDEST JUMPDEST DUP1 PUSH1 0x40 MSTORE POP POP POP JUMP JUMPDEST PUSH1 0x0 PUSH2 0xA07 PUSH2 0x7C7 JUMP JUMPDEST SWAP1 POP PUSH2 0xA13 DUP3 DUP3 PUSH2 0x9CC JUMP JUMPDEST SWAP2 SWAP1 POP JUMP JUMPDEST PUSH1 0x0 PUSH8 0xFFFFFFFFFFFFFFFF DUP3 GT ISZERO PUSH2 0xA33 JUMPI PUSH2 0xA32 PUSH2 0x99D JUMP JUMPDEST JUMPDEST PUSH2 0xA3C DUP3 PUSH2 0x8D4 JUMP JUMPDEST SWAP1 POP PUSH1 0x20 DUP2 ADD SWAP1 POP SWAP2 SWAP1 POP JUMP JUMPDEST DUP3 DUP2 DUP4 CALLDATACOPY PUSH1 0x0 DUP4 DUP4 ADD MSTORE POP POP POP JUMP JUMPDEST PUSH1 0x0 PUSH2 0xA6B PUSH2 0xA66 DUP5 PUSH2 0xA18 JUMP JUMPDEST PUSH2 0x9FD JUMP JUMPDEST SWAP1 POP DUP3 DUP2 MSTORE PUSH1 0x20 DUP2 ADD DUP5 DUP5 DUP5 ADD GT ISZERO PUSH2 0xA87 JUMPI PUSH2 0xA86 PUSH2 0x998 JUMP JUMPDEST JUMPDEST PUSH2 0xA92 DUP5 DUP3 DUP6 PUSH2 0xA49 JUMP JUMPDEST POP SWAP4 SWAP3 POP POP POP JUMP JUMPDEST PUSH1 0x0 DUP3 PUSH1 0x1F DUP4 ADD SLT PUSH2 0xAAF JUMPI PUSH2 0xAAE PUSH2 0x993 JUMP JUMPDEST JUMPDEST DUP2 CALLDATALOAD PUSH2 0xABF DUP5 DUP3 PUSH1 0x20 DUP7 ADD PUSH2 0xA58 JUMP JUMPDEST SWAP2 POP POP SWAP3 SWAP2 POP POP JUMP JUMPDEST PUSH1 0x0 DUP1 PUSH1 0x40 DUP4 DUP6 SUB SLT ISZERO PUSH2 0xADF JUMPI PUSH2 0xADE PUSH2 0x7D1 JUMP JUMPDEST JUMPDEST PUSH1 0x0 DUP4 ADD CALLDATALOAD PUSH8 0xFFFFFFFFFFFFFFFF DUP2 GT ISZERO PUSH2 0xAFD JUMPI PUSH2 0xAFC PUSH2 0x7D6 JUMP JUMPDEST JUMPDEST PUSH2 0xB09 DUP6 DUP3 DUP7 ADD PUSH2 0xA9A JUMP JUMPDEST SWAP3 POP POP PUSH1 0x20 PUSH2 0xB1A DUP6 DUP3 DUP7 ADD PUSH2 0x7FC JUMP JUMPDEST SWAP2 POP POP SWAP3 POP SWAP3 SWAP1 POP JUMP JUMPDEST PUSH1 0x0 PUSH1 0x20 DUP3 ADD SWAP1 POP PUSH2 0xB39 PUSH1 0x0 DUP4 ADD DUP5 PUSH2 0x87F JUMP JUMPDEST SWAP3 SWAP2 POP POP JUMP JUMPDEST PUSH1 0x0 PUSH1 0x20 DUP3 ADD SWAP1 POP PUSH2 0xB54 PUSH1 0x0 DUP4 ADD DUP5 PUSH2 0x83E JUMP JUMPDEST SWAP3 SWAP2 POP POP JUMP JUMPDEST PUSH2 0xB63 DUP2 PUSH2 0x86D JUMP JUMPDEST DUP2 EQ PUSH2 0xB6E JUMPI PUSH1 0x0 DUP1 REVERT JUMPDEST POP JUMP JUMPDEST PUSH1 0x0 DUP2 CALLDATALOAD SWAP1 POP PUSH2 0xB80 DUP2 PUSH2 0xB5A JUMP JUMPDEST SWAP3 SWAP2 POP POP JUMP JUMPDEST PUSH1 0x0 PUSH1 0x20 DUP3 DUP5 SUB SLT ISZERO PUSH2 0xB9C JUMPI PUSH2 0xB9B PUSH2 0x7D1 JUMP JUMPDEST JUMPDEST PUSH1 0x0 PUSH2 0xBAA DUP5 DUP3 DUP6 ADD PUSH2 0xB71 JUMP JUMPDEST SWAP2 POP POP SWAP3 SWAP2 POP POP JUMP JUMPDEST PUSH32 0x4E487B7100000000000000000000000000000000000000000000000000000000 PUSH1 0x0 MSTORE PUSH1 0x22 PUSH1 0x4 MSTORE PUSH1 0x24 PUSH1 0x0 REVERT JUMPDEST PUSH1 0x0 PUSH1 0x2 DUP3 DIV SWAP1 POP PUSH1 0x1 DUP3 AND DUP1 PUSH2 0xBFA JUMPI PUSH1 0x7F DUP3 AND SWAP2 POP JUMPDEST PUSH1 0x20 DUP3 LT DUP2 SUB PUSH2 0xC0D JUMPI PUSH2 0xC0C PUSH2 0xBB3 JUMP JUMPDEST JUMPDEST POP SWAP2 SWAP1 POP JUMP JUMPDEST PUSH32 0x4E487B7100000000000000000000000000000000000000000000000000000000 PUSH1 0x0 MSTORE PUSH1 0x11 PUSH1 0x4 MSTORE PUSH1 0x24 PUSH1 0x0 REVERT JUMPDEST PUSH1 0x0 PUSH2 0xC4D DUP3 PUSH2 0x7DB JUMP JUMPDEST SWAP2 POP PUSH32 0xFFFFFFFFFFFFFFFFFFFFFFFFFFFFFFFFFFFFFFFFFFFFFFFFFFFFFFFFFFFFFFFF DUP3 SUB PUSH2 0xC7F JUMPI PUSH2 0xC7E PUSH2 0xC13 JUMP JUMPDEST JUMPDEST PUSH1 0x1 DUP3 ADD SWAP1 POP SWAP2 SWAP1 POP JUMP JUMPDEST PUSH1 0x0 DUP2 SWAP1 POP DUP2 PUSH1 0x0 MSTORE PUSH1 0x20 PUSH1 0x0 KECCAK256 SWAP1 POP SWAP2 SWAP1 POP JUMP JUMPDEST PUSH1 0x0 PUSH1 0x20 PUSH1 0x1F DUP4 ADD DIV SWAP1 POP SWAP2 SWAP1 POP JUMP JUMPDEST PUSH1 0x0 DUP3 DUP3 SHL SWAP1 POP SWAP3 SWAP2 POP POP JUMP JUMPDEST PUSH1 0x0 PUSH1 0x8 DUP4 MUL PUSH2 0xCEC PUSH32 0xFFFFFFFFFFFFFFFFFFFFFFFFFFFFFFFFFFFFFFFFFFFFFFFFFFFFFFFFFFFFFFFF DUP3 PUSH2 0xCAF JUMP JUMPDEST PUSH2 0xCF6 DUP7 DUP4 PUSH2 0xCAF JUMP JUMPDEST SWAP6 POP DUP1 NOT DUP5 AND SWAP4 POP DUP1 DUP7 AND DUP5 OR SWAP3 POP POP POP SWAP4 SWAP3 POP POP POP JUMP JUMPDEST PUSH1 0x0 DUP2 SWAP1 POP SWAP2 SWAP1 POP JUMP JUMPDEST PUSH1 0x0 PUSH2 0xD33 PUSH2 0xD2E PUSH2 0xD29 DUP5 PUSH2 0x7DB JUMP JUMPDEST PUSH2 0xD0E JUMP JUMPDEST PUSH2 0x7DB JUMP JUMPDEST SWAP1 POP SWAP2 SWAP1 POP JUMP JUMPDEST PUSH1 0x0 DUP2 SWAP1 POP SWAP2 SWAP1 POP JUMP JUMPDEST PUSH2 0xD4D DUP4 PUSH2 0xD18 JUMP JUMPDEST PUSH2 0xD61 PUSH2 0xD59 DUP3 PUSH2 0xD3A JUMP JUMPDEST DUP5 DUP5 SLOAD PUSH2 0xCBC JUMP JUMPDEST DUP3 SSTORE POP POP POP POP JUMP JUMPDEST PUSH1 0x0 SWAP1 JUMP JUMPDEST PUSH2 0xD76 PUSH2 0xD69 JUMP JUMPDEST PUSH2 0xD81 DUP2 DUP5 DUP5 PUSH2 0xD44 JUMP JUMPDEST POP POP POP JUMP JUMPDEST JUMPDEST DUP2 DUP2 LT ISZERO PUSH2 0xDA5 JUMPI PUSH2 0xD9A PUSH1 0x0 DUP3 PUSH2 0xD6E JUMP JUMPDEST PUSH1 0x1 DUP2 ADD SWAP1 POP PUSH2 0xD87 JUMP JUMPDEST POP POP JUMP JUMPDEST PUSH1 0x1F DUP3 GT ISZERO PUSH2 0xDEA JUMPI PUSH2 0xDBB DUP2 PUSH2 0xC8A JUMP JUMPDEST PUSH2 0xDC4 DUP5 PUSH2 0xC9F JUMP JUMPDEST DUP2 ADD PUSH1 0x20 DUP6 LT ISZERO PUSH2 0xDD3 JUMPI DUP2 SWAP1 POP JUMPDEST PUSH2 0xDE7 PUSH2 0xDDF DUP6 PUSH2 0xC9F JUMP JUMPDEST DUP4 ADD DUP3 PUSH2 0xD86 JUMP JUMPDEST POP POP JUMPDEST POP POP POP JUMP JUMPDEST PUSH1 0x0 DUP3 DUP3 SHR SWAP1 POP SWAP3 SWAP2 POP POP JUMP JUMPDEST PUSH1 0x0 PUSH2 0xE0D PUSH1 0x0 NOT DUP5 PUSH1 0x8 MUL PUSH2 0xDEF JUMP JUMPDEST NOT DUP1 DUP4 AND SWAP2 POP POP SWAP3 SWAP2 POP POP JUMP JUMPDEST PUSH1 0x0 PUSH2 0xE26 DUP4 DUP4 PUSH2 0xDFC JUMP JUMPDEST SWAP2 POP DUP3 PUSH1 0x2 MUL DUP3 OR SWAP1 POP SWAP3 SWAP2 POP POP JUMP JUMPDEST PUSH2 0xE3F DUP3 PUSH2 0x88E JUMP JUMPDEST PUSH8 0xFFFFFFFFFFFFFFFF DUP2 GT ISZERO PUSH2 0xE58 JUMPI PUSH2 0xE57 PUSH2 0x99D JUMP JUMPDEST JUMPDEST PUSH2 0xE62 DUP3 SLOAD PUSH2 0xBE2 JUMP JUMPDEST PUSH2 0xE6D DUP3 DUP3 DUP6 PUSH2 0xDA9 JUMP JUMPDEST PUSH1 0x0 PUSH1 0x20 SWAP1 POP PUSH1 0x1F DUP4 GT PUSH1 0x1 DUP2 EQ PUSH2 0xEA0 JUMPI PUSH1 0x0 DUP5 ISZERO PUSH2 0xE8E JUMPI DUP3 DUP8 ADD MLOAD SWAP1 POP JUMPDEST PUSH2 0xE98 DUP6 DUP3 PUSH2 0xE1A JUMP JUMPDEST DUP7 SSTORE POP PUSH2 0xF00 JUMP JUMPDEST PUSH1 0x1F NOT DUP5 AND PUSH2 0xEAE DUP7 PUSH2 0xC8A JUMP JUMPDEST PUSH1 0x0 JUMPDEST DUP3 DUP2 LT ISZERO PUSH2 0xED6 JUMPI DUP5 DUP10 ADD MLOAD DUP3 SSTORE PUSH1 0x1 DUP3 ADD SWAP2 POP PUSH1 0x20 DUP6 ADD SWAP5 POP PUSH1 0x20 DUP2 ADD SWAP1 POP PUSH2 0xEB1 JUMP JUMPDEST DUP7 DUP4 LT ISZERO PUSH2 0xEF3 JUMPI DUP5 DUP10 ADD MLOAD PUSH2 0xEEF PUSH1 0x1F DUP10 AND DUP3 PUSH2 0xDFC JUMP JUMPDEST DUP4 SSTORE POP JUMPDEST PUSH1 0x1 PUSH1 0x2 DUP9 MUL ADD DUP9 SSTORE POP POP POP JUMPDEST POP POP POP POP POP POP JUMP JUMPDEST PUSH1 0x0 PUSH1 0x40 DUP3 ADD SWAP1 POP DUP2 DUP2 SUB PUSH1 0x0 DUP4 ADD MSTORE PUSH2 0xF22 DUP2 DUP6 PUSH2 0x8E5 JUMP JUMPDEST SWAP1 POP PUSH2 0xF31 PUSH1 0x20 DUP4 ADD DUP5 PUSH2 0x83E JUMP JUMPDEST SWAP4 SWAP3 POP POP POP JUMP JUMPDEST PUSH32 0x4974656D20616C726561647920736F6C64000000000000000000000000000000 PUSH1 0x0 DUP3 ADD MSTORE POP JUMP JUMPDEST PUSH1 0x0 PUSH2 0xF6E PUSH1 0x11 DUP4 PUSH2 0x899 JUMP JUMPDEST SWAP2 POP PUSH2 0xF79 DUP3 PUSH2 0xF38 JUMP JUMPDEST PUSH1 0x20 DUP3 ADD SWAP1 POP SWAP2 SWAP1 POP JUMP JUMPDEST PUSH1 0x0 PUSH1 0x20 DUP3 ADD SWAP1 POP DUP2 DUP2 SUB PUSH1 0x0 DUP4 ADD MSTORE PUSH2 0xF9D DUP2 PUSH2 0xF61 JUMP JUMPDEST SWAP1 POP SWAP2 SWAP1 POP JUMP JUMPDEST PUSH32 0x496E73756666696369656E742066756E64730000000000000000000000000000 PUSH1 0x0 DUP3 ADD MSTORE POP JUMP JUMPDEST PUSH1 0x0 PUSH2 0xFDA PUSH1 0x12 DUP4 PUSH2 0x899 JUMP JUMPDEST SWAP2 POP PUSH2 0xFE5 DUP3 PUSH2 0xFA4 JUMP JUMPDEST PUSH1 0x20 DUP3 ADD SWAP1 POP SWAP2 SWAP1 POP JUMP JUMPDEST PUSH1 0x0 PUSH1 0x20 DUP3 ADD SWAP1 POP DUP2 DUP2 SUB PUSH1 0x0 DUP4 ADD MSTORE PUSH2 0x1009 DUP2 PUSH2 0xFCD JUMP JUMPDEST SWAP1 POP SWAP2 SWAP1 POP JUMP INVALID LOG2 PUSH5 0x6970667358 0x22 SLT KECCAK256 PUSH15 0x784DD863F46869AA43D37CCFBB867C CALLDATALOAD DUP5 SIGNEXTEND MUL RETURNDATASIZE 0xDD 0xB7 SLT SDIV JUMPDEST 0xEB 0xDD SWAP1 0xEF DUP14 0xCF PUSH5 0x736F6C6343 STOP ADDMOD XOR STOP CALLER "},"methodIdentifiers":{"buyItem(uint256)":"e7fb74c7","createItem(string,uint256)":"8c551742","getItem(uint256)":"3129e773","getItemsSold()":"c4b15141","owner()":"8da5cb5b","renounceOwnership()":"715018a6","transferOwnership(address)":"f2fde38b"}}}}}