{
  "_format": "hh-sol-artifact-1",
  "contractName": "NFTMarketplace",
  "sourceName": "contracts/NFTMarketplace.sol",
  "abi": [
    {
      "inputs": [],
      "stateMutability": "nonpayable",
      "type": "constructor"
    },
    {
      "inputs": [
        {
          "internalType": "address",
          "name": "owner",
          "type": "address"
        }
      ],
      "name": "OwnableInvalidOwner",
      "type": "error"
    },
    {
      "inputs": [
        {
          "internalType": "address",
          "name": "account",
          "type": "address"
        }
      ],
      "name": "OwnableUnauthorizedAccount",
      "type": "error"
    },
    {
      "anonymous": false,
      "inputs": [
        {
          "indexed": true,
          "internalType": "uint256",
          "name": "itemId",
          "type": "uint256"
        },
        {
          "indexed": true,
          "internalType": "address",
          "name": "creator",
          "type": "address"
        },
        {
          "indexed": false,
          "internalType": "string",
          "name": "uri",
          "type": "string"
        },
        {
          "indexed": false,
          "internalType": "uint256",
          "name": "price",
          "type": "uint256"
        }
      ],
      "name": "ItemCreated",
      "type": "event"
    },
    {
      "anonymous": false,
      "inputs": [
        {
          "indexed": true,
          "internalType": "uint256",
          "name": "itemId",
          "type": "uint256"
        },
        {
          "indexed": true,
          "internalType": "address",
          "name": "buyer",
          "type": "address"
        },
        {
          "indexed": false,
          "internalType": "uint256",
          "name": "price",
          "type": "uint256"
        }
      ],
      "name": "ItemSold",
      "type": "event"
    },
    {
      "anonymous": false,
      "inputs": [
        {
          "indexed": true,
          "internalType": "address",
          "name": "previousOwner",
          "type": "address"
        },
        {
          "indexed": true,
          "internalType": "address",
          "name": "newOwner",
          "type": "address"
        }
      ],
      "name": "OwnershipTransferred",
      "type": "event"
    },
    {
      "inputs": [
        {
          "internalType": "uint256",
          "name": "itemId",
          "type": "uint256"
        }
      ],
      "name": "buyItem",
      "outputs": [],
      "stateMutability": "payable",
      "type": "function"
    },
    {
      "inputs": [
        {
          "internalType": "string",
          "name": "uri",
          "type": "string"
        },
        {
          "internalType": "uint256",
          "name": "price",
          "type": "uint256"
        }
      ],
      "name": "createItem",
      "outputs": [],
      "stateMutability": "nonpayable",
      "type": "function"
    },
    {
      "inputs": [
        {
          "internalType": "uint256",
          "name": "itemId",
          "type": "uint256"
        }
      ],
      "name": "getItem",
      "outputs": [
        {
          "internalType": "uint256",
          "name": "id",
          "type": "uint256"
        },
        {
          "internalType": "address",
          "name": "creator",
          "type": "address"
        },
        {
          "internalType": "string",
          "name": "uri",
          "type": "string"
        },
        {
          "internalType": "uint256",
          "name": "price",
          "type": "uint256"
        },
        {
          "internalType": "bool",
          "name": "sold",
          "type": "bool"
        }
      ],
      "stateMutability": "view",
      "type": "function"
    },
    {
      "inputs": [],
      "name": "getItemsSold",
      "outputs": [
        {
          "internalType": "uint256",
          "name": "",
          "type": "uint256"
        }
      ],
      "stateMutability": "view",
      "type": "function"
    },
    {
      "inputs": [],
      "name": "owner",
      "outputs": [
        {
          "internalType": "address",
          "name": "",
          "type": "address"
        }
      ],
      "stateMutability": "view",
      "type": "function"
    },
    {
      "inputs": [],
      "name": "renounceOwnership",
      "outputs": [],
      "stateMutability": "nonpayable",
      "type": "function"
    },
    {
      "inputs": [
        {
          "internalType": "address",
          "name": "newOwner",
          "type": "address"
        }
      ],
      "name": "transferOwnership",
      "outputs": [],
      "stateMutability": "nonpayable",
      "type": "function"
    }
  ],
  "bytecode": "0x608060405234801561001057600080fd5b5033600073ffffffffffffffffffffffffffffffffffffffff168173ffffffffffffffffffffffffffffffffffffffff16036100845760006040517f1e4fbdf700000000000000000000000000000000000000000000000000000000815260040161007b919061019e565b60405180910390fd5b6100938161009960201b60201c565b506101b9565b60008060009054906101000a900473ffffffffffffffffffffffffffffffffffffffff169050816000806101000a81548173ffffffffffffffffffffffffffffffffffffffff021916908373ffffffffffffffffffffffffffffffffffffffff1602179055508173ffffffffffffffffffffffffffffffffffffffff168173ffffffffffffffffffffffffffffffffffffffff167f8be0079c531659141344cd1fd0a4f28419497f9722a3daafe3b4186f6b6457e060405160405180910390a35050565b600073ffffffffffffffffffffffffffffffffffffffff82169050919050565b60006101888261015d565b9050919050565b6101988161017d565b82525050565b60006020820190506101b3600083018461018f565b92915050565b611046806101c86000396000f3fe6080604052600436106100705760003560e01c80638da5cb5b1161004e5780638da5cb5b146100f6578063c4b1514114610121578063e7fb74c71461014c578063f2fde38b1461016857610070565b80633129e77314610075578063715018a6146100b65780638c551742146100cd575b600080fd5b34801561008157600080fd5b5061009c60048036038101906100979190610811565b610191565b6040516100ad959493929190610939565b60405180910390f35b3480156100c257600080fd5b506100cb610292565b005b3480156100d957600080fd5b506100f460048036038101906100ef9190610ac8565b6102a6565b005b34801561010257600080fd5b5061010b61040a565b6040516101189190610b24565b60405180910390f35b34801561012d57600080fd5b50610136610433565b6040516101439190610b3f565b60405180910390f35b61016660048036038101906101619190610811565b61043d565b005b34801561017457600080fd5b5061018f600480360381019061018a9190610b86565b6105ee565b005b60008060606000806000600160008881526020019081526020016000209050806000015495508060010160009054906101000a900473ffffffffffffffffffffffffffffffffffffffff1694508060020180546101ed90610be2565b80601f016020809104026020016040519081016040528092919081815260200182805461021990610be2565b80156102665780601f1061023b57610100808354040283529160200191610266565b820191906000526020600020905b81548152906001019060200180831161024957829003601f168201915b50505050509350806003015492508060040160009054906101000a900460ff1691505091939590929450565b61029a610674565b6102a460006106fb565b565b6102ae610674565b600260008154809291906102c190610c42565b9190505550600060025490506040518060a001604052808281526020013373ffffffffffffffffffffffffffffffffffffffff16815260200184815260200183815260200160001515815250600160008381526020019081526020016000206000820151816000015560208201518160010160006101000a81548173ffffffffffffffffffffffffffffffffffffffff021916908373ffffffffffffffffffffffffffffffffffffffff16021790555060408201518160020190816103869190610e36565b506060820151816003015560808201518160040160006101000a81548160ff0219169083151502179055509050503373ffffffffffffffffffffffffffffffffffffffff16817f1603f20f721362b0691bb408edb3cf01409cd56da9edd4627b178750b7dd49a885856040516103fd929190610f08565b60405180910390a3505050565b60008060009054906101000a900473ffffffffffffffffffffffffffffffffffffffff16905090565b6000600354905090565b6000600160008381526020019081526020016000209050600015158160040160009054906101000a900460ff161515146104ac576040517f08c379a00000000000000000000000000000000000000000000000000000000081526004016104a390610f84565b60405180910390fd5b80600301543410156104f3576040517f08c379a00000000000000000000000000000000000000000000000000000000081526004016104ea90610ff0565b60405180910390fd5b60018160040160006101000a81548160ff0219169083151502179055506003600081548092919061052390610c42565b91905055503373ffffffffffffffffffffffffffffffffffffffff16827fa574c741071bb18f51fa88c17aeefec514bebf670ca22a3736fba6504ecbb76383600301546040516105739190610b3f565b60405180910390a38060010160009054906101000a900473ffffffffffffffffffffffffffffffffffffffff1673ffffffffffffffffffffffffffffffffffffffff166108fc82600301549081150290604051600060405180830381858888f193505050501580156105e9573d6000803e3d6000fd5b505050565b6105f6610674565b600073ffffffffffffffffffffffffffffffffffffffff168173ffffffffffffffffffffffffffffffffffffffff16036106685760006040517f1e4fbdf700000000000000000000000000000000000000000000000000000000815260040161065f9190610b24565b60405180910390fd5b610671816106fb565b50565b61067c6107bf565b73ffffffffffffffffffffffffffffffffffffffff1661069a61040a565b73ffffffffffffffffffffffffffffffffffffffff16146106f9576106bd6107bf565b6040517f118cdaa70000000000000000000000000000000000000000000000000000000081526004016106f09190610b24565b60405180910390fd5b565b60008060009054906101000a900473ffffffffffffffffffffffffffffffffffffffff169050816000806101000a81548173ffffffffffffffffffffffffffffffffffffffff021916908373ffffffffffffffffffffffffffffffffffffffff1602179055508173ffffffffffffffffffffffffffffffffffffffff168173ffffffffffffffffffffffffffffffffffffffff167f8be0079c531659141344cd1fd0a4f28419497f9722a3daafe3b4186f6b6457e060405160405180910390a35050565b600033905090565b6000604051905090565b600080fd5b600080fd5b6000819050919050565b6107ee816107db565b81146107f957600080fd5b50565b60008135905061080b816107e5565b92915050565b600060208284031215610827576108266107d1565b5b6000610835848285016107fc565b91505092915050565b610847816107db565b82525050565b600073ffffffffffffffffffffffffffffffffffffffff82169050919050565b60006108788261084d565b9050919050565b6108888161086d565b82525050565b600081519050919050565b600082825260208201905092915050565b60005b838110156108c85780820151818401526020810190506108ad565b60008484015250505050565b6000601f19601f8301169050919050565b60006108f08261088e565b6108fa8185610899565b935061090a8185602086016108aa565b610913816108d4565b840191505092915050565b60008115159050919050565b6109338161091e565b82525050565b600060a08201905061094e600083018861083e565b61095b602083018761087f565b818103604083015261096d81866108e5565b905061097c606083018561083e565b610989608083018461092a565b9695505050505050565b600080fd5b600080fd5b7f4e487b7100000000000000000000000000000000000000000000000000000000600052604160045260246000fd5b6109d5826108d4565b810181811067ffffffffffffffff821117156109f4576109f361099d565b5b80604052505050565b6000610a076107c7565b9050610a1382826109cc565b919050565b600067ffffffffffffffff821115610a3357610a3261099d565b5b610a3c826108d4565b9050602081019050919050565b82818337600083830152505050565b6000610a6b610a6684610a18565b6109fd565b905082815260208101848484011115610a8757610a86610998565b5b610a92848285610a49565b509392505050565b600082601f830112610aaf57610aae610993565b5b8135610abf848260208601610a58565b91505092915050565b60008060408385031215610adf57610ade6107d1565b5b600083013567ffffffffffffffff811115610afd57610afc6107d6565b5b610b0985828601610a9a565b9250506020610b1a858286016107fc565b9150509250929050565b6000602082019050610b39600083018461087f565b92915050565b6000602082019050610b54600083018461083e565b92915050565b610b638161086d565b8114610b6e57600080fd5b50565b600081359050610b8081610b5a565b92915050565b600060208284031215610b9c57610b9b6107d1565b5b6000610baa84828501610b71565b91505092915050565b7f4e487b7100000000000000000000000000000000000000000000000000000000600052602260045260246000fd5b60006002820490506001821680610bfa57607f821691505b602082108103610c0d57610c0c610bb3565b5b50919050565b7f4e487b7100000000000000000000000000000000000000000000000000000000600052601160045260246000fd5b6000610c4d826107db565b91507fffffffffffffffffffffffffffffffffffffffffffffffffffffffffffffffff8203610c7f57610c7e610c13565b5b600182019050919050565b60008190508160005260206000209050919050565b60006020601f8301049050919050565b600082821b905092915050565b600060088302610cec7fffffffffffffffffffffffffffffffffffffffffffffffffffffffffffffffff82610caf565b610cf68683610caf565b95508019841693508086168417925050509392505050565b6000819050919050565b6000610d33610d2e610d29846107db565b610d0e565b6107db565b9050919050565b6000819050919050565b610d4d83610d18565b610d61610d5982610d3a565b848454610cbc565b825550505050565b600090565b610d76610d69565b610d81818484610d44565b505050565b5b81811015610da557610d9a600082610d6e565b600181019050610d87565b5050565b601f821115610dea57610dbb81610c8a565b610dc484610c9f565b81016020851015610dd3578190505b610de7610ddf85610c9f565b830182610d86565b50505b505050565b600082821c905092915050565b6000610e0d60001984600802610def565b1980831691505092915050565b6000610e268383610dfc565b9150826002028217905092915050565b610e3f8261088e565b67ffffffffffffffff811115610e5857610e5761099d565b5b610e628254610be2565b610e6d828285610da9565b600060209050601f831160018114610ea05760008415610e8e578287015190505b610e988582610e1a565b865550610f00565b601f198416610eae86610c8a565b60005b82811015610ed657848901518255600182019150602085019450602081019050610eb1565b86831015610ef35784890151610eef601f891682610dfc565b8355505b6001600288020188555050505b505050505050565b60006040820190508181036000830152610f2281856108e5565b9050610f31602083018461083e565b9392505050565b7f4974656d20616c726561647920736f6c64000000000000000000000000000000600082015250565b6000610f6e601183610899565b9150610f7982610f38565b602082019050919050565b60006020820190508181036000830152610f9d81610f61565b9050919050565b7f496e73756666696369656e742066756e64730000000000000000000000000000600082015250565b6000610fda601283610899565b9150610fe582610fa4565b602082019050919050565b6000602082019050818103600083015261100981610fcd565b905091905056fea26469706673582212206e784dd863f46869aa43d37ccfbb867c35840b023dddb712055bebdd90ef8dcf64736f6c63430008180033",
  "linkReferences": {},
  "deployedLinkReferences": {}
}